{
  "address": "0xCf7Ed3AccA5a467e9e704C703E8D87F634fB0Fc9",
  "abi": [
    {
      "inputs": [
        {
          "internalType": "uint256",
          "name": "_tokenId",
          "type": "uint256"
        },
        {
          "internalType": "uint256",
          "name": "_balanceOf",
          "type": "uint256"
        },
        {
          "internalType": "uint256",
          "name": "_locked_end",
          "type": "uint256"
        },
        {
          "internalType": "uint256",
          "name": "_value",
          "type": "uint256"
        }
      ],
      "name": "_tokenURI",
      "outputs": [
        {
          "internalType": "string",
          "name": "output",
          "type": "string"
        }
      ],
      "stateMutability": "pure",
      "type": "function"
    }
  ],
  "transactionHash": "0x3b9f36b551adf0504cb38b8adbcfa61a119492980ed96e424795c9616261cd4d",
  "args": [],
  "numDeployments": 1,
  "solcInputHash": "8a5b2899279fd6006b7ca1a785470ab2",
  "bytecode": "0x608060405234801561001057600080fd5b50610a24806100206000396000f3fe608060405234801561001057600080fd5b506004361061002b5760003560e01c8063dd9ec14914610030575b600080fd5b61004361003e366004610403565b610059565b6040516100509190610465565b60405180910390f35b606060405180610120016040528060fd81526020016108b260fd913990508061008186610190565b604051602001610092929190610498565b6040516020818303038152906040529050806100ad85610190565b6040516020016100be929190610514565b6040516020818303038152906040529050806100d984610190565b6040516020016100ea929190610594565b60405160208183030381529060405290508061010583610190565b604051602001610116929190610615565b6040516020818303038152906040529050600061016361013587610190565b61013e84610299565b60405160200161014f929190610670565b604051602081830303815290604052610299565b9050806040516020016101769190610785565b604051602081830303815290604052915050949350505050565b6060816000036101b75750506040805180820190915260018152600360fc1b602082015290565b8160005b81156101e157806101cb816107e0565b91506101da9050600a8361080f565b91506101bb565b60008167ffffffffffffffff8111156101fc576101fc610823565b6040519080825280601f01601f191660200182016040528015610226576020820181803683370190505b5090505b84156102915761023b600183610839565b9150610248600a86610850565b610253906030610864565b60f81b8183815181106102685761026861087c565b60200101906001600160f81b031916908160001a90535061028a600a8661080f565b945061022a565b949350505050565b805160609060008190036102bd575050604080516020810190915260008152919050565b600060036102cc836002610864565b6102d6919061080f565b6102e1906004610892565b905060006102f0826020610864565b67ffffffffffffffff81111561030857610308610823565b6040519080825280601f01601f191660200182016040528015610332576020820181803683370190505b50905060006040518060600160405280604081526020016109af604091399050600181016020830160005b868110156103be576003818a01810151603f601282901c8116860151600c83901c8216870151600684901c831688015192909316870151600891821b60ff94851601821b92841692909201901b91160160e01b83526004909201910161035d565b5060038606600181146103d857600281146103e9576103f5565b613d3d60f01b6001198301526103f5565b603d60f81b6000198301525b505050918152949350505050565b6000806000806080858703121561041957600080fd5b5050823594602084013594506040840135936060013592509050565b60005b83811015610450578181015183820152602001610438565b8381111561045f576000848401525b50505050565b6020815260008251806020840152610484816040850160208701610435565b601f01601f19169190910160400192915050565b600083516104aa818460208801610435565b6503a37b5b2b7160d51b90830190815283516104cd816006840160208801610435565b7f3c2f746578743e3c7465787420783d2231302220793d2234302220636c61737360069290910191820152671e913130b9b2911f60c11b6026820152602e01949350505050565b60008351610526818460208801610435565b6903130b630b731b2a7b3160b51b908301908152835161054d81600a840160208801610435565b7f3c2f746578743e3c7465787420783d2231302220793d2236302220636c617373600a9290910191820152671e913130b9b2911f60c11b602a820152603201949350505050565b600083516105a6818460208801610435565b6a03637b1b5b2b22fb2b732160ad1b90830190815283516105ce81600b840160208801610435565b7f3c2f746578743e3c7465787420783d2231302220793d2238302220636c617373600b9290910191820152671e913130b9b2911f60c11b602b820152603301949350505050565b60008351610627818460208801610435565b6503b30b63ab2960d51b908301908152835161064a816006840160208801610435565b6c1e17ba32bc3a1f1e17b9bb339f60991b60069290910191820152601301949350505050565b6f7b226e616d65223a20226c6f636b202360801b8152825160009061069c816010850160208801610435565b7f222c20226465736372697074696f6e223a20224269706c616e65206c6f636b736010918401918201527f2c2063616e206265207573656420746f20626f6f73742067617567652079696560308201527f6c64732c20766f7465206f6e20746f6b656e20656d697373696f6e2c20616e6460508201527f207265636569766520627269626573222c2022696d616765223a2022646174616070820152750e9a5b5859d94bdcdd99cade1b5b0ed8985cd94d8d0b60521b6090820152835161076a8160a6840160208801610435565b61227d60f01b60a6929091019182015260a801949350505050565b7f646174613a6170706c69636174696f6e2f6a736f6e3b6261736536342c0000008152600082516107bd81601d850160208701610435565b91909101601d0192915050565b634e487b7160e01b600052601160045260246000fd5b6000600182016107f2576107f26107ca565b5060010190565b634e487b7160e01b600052601260045260246000fd5b60008261081e5761081e6107f9565b500490565b634e487b7160e01b600052604160045260246000fd5b60008282101561084b5761084b6107ca565b500390565b60008261085f5761085f6107f9565b500690565b60008219821115610877576108776107ca565b500190565b634e487b7160e01b600052603260045260246000fd5b60008160001904831182151516156108ac576108ac6107ca565b50029056fe3c73766720786d6c6e733d22687474703a2f2f7777772e77332e6f72672f323030302f73766722207072657365727665417370656374526174696f3d22784d696e594d696e206d656574222076696577426f783d223020302033353020333530223e3c7374796c653e2e62617365207b2066696c6c3a2077686974653b20666f6e742d66616d696c793a2073657269663b20666f6e742d73697a653a20313470783b207d3c2f7374796c653e3c726563742077696474683d223130302522206865696768743d2231303025222066696c6c3d22626c61636b22202f3e3c7465787420783d2231302220793d2232302220636c6173733d2262617365223e4142434445464748494a4b4c4d4e4f505152535455565758595a6162636465666768696a6b6c6d6e6f707172737475767778797a303132333435363738392b2fa26469706673582212204a63b3273cf0aabc58de53d41412d8f007b98309206660c4fd8a7f397741df9b64736f6c634300080d0033",
  "devdoc": {
    "kind": "dev",
    "methods": {},
    "version": 1
  },
  "userdoc": {
    "kind": "user",
    "methods": {},
    "version": 1
  },
  "storageLayout": {
    "storage": [],
    "types": null
  }
}